:100000000C9458000C9480000C9480000C94800098
:100010000C9480000C9480000C9480000C94800060
:100020000C9480000C9480000C9480000C94800050
:100030000C9480000C9480000C9480000C94800040
:100040000C94A6050C9480000C9416060C94F005F4
:100050000C9480000C9480000C9480000C94800020
:100060000C9448060C948000000000002500280035
:100070002B00040404040404040402020202020229
:10008000030303030303010204081020408001025C
:1000900004081020010204081020000000080002DB
:1000A00001000003040700000000000000006707D3
:1000B00011241FBECFEFD8E0DEBFCDBF11E0A0E01E
:1000C000B1E0E2E4F5E102C005900D92A63EB10771
:1000D000D9F723E0A6EEB1E001C01D92A237B20726
:1000E000E1F710E0C8E5D0E004C02197FE010E94CE
:1000F000990AC735D107C9F70E94CA070C949F0A0D
:100100000C9400000895089590E0FC01E656FF4F1E
:100110002491FC01EA57FF4F3491FC01EE58FF4F48
:10012000E491EE23C9F0222339F0233001F1A8F441
:10013000213019F1223029F1F0E0EE0FFF1FE859CC
:10014000FF4FA591B4918FB7F894EC91611126C03F
:1001500030953E233C938FBF08952730A9F0283077
:10016000C9F0243049F7809180008F7D03C08091D1
:1001700080008F7780938000DFCF84B58F7784BD38
:10018000DBCF84B58F7DFBCF8091B0008F778093DC
:10019000B000D2CF8091B0008F7DF9CF3E2BDACF67
:1001A0003FB7F89480914F0290915002A091510274
:1001B000B091520226B5A89B05C02F3F19F00196B9
:1001C000A11DB11D3FBFBA2FA92F982F8827BC01B1
:1001D000CD01620F711D811D911D42E0660F771FD9
:1001E000881F991F4A95D1F708958F929F92AF92D9
:1001F000BF92CF92DF92EF92FF924B015C010E947F
:10020000D0006B017C010E94D0006C197D098E0921
:100210009F09683E734081059105A8F321E0821A89
:100220009108A108B10888EEC80E83E0D81EE11C31
:10023000F11C81149104A104B10429F7FF90EF90FF
:10024000DF90CF90BF90AF909F908F900895AF9226
:10025000BF92CF92DF92EF92FF920F931F93CF93B3
:10026000DF936C017B018B01040F151FEB015E0115
:10027000AE18BF08C017D10759F06991D601ED91AA
:10028000FC910190F081E02DC6010995892B79F749
:10029000C501DF91CF911F910F91FF90EF90DF90FB
:1002A000CF90BF90AF900895FC01538D448D252FC2
:1002B00030E0842F90E0821B930B541710F0CF9600
:1002C000089501970895FC01918D828D981761F032
:1002D000A28DAE0FBF2FB11D5D968C91928D9F5F49
:1002E0009F73928F90E008958FEF9FEF0895FC0128
:1002F000918D828D981731F0828DE80FF11D858DDB
:1003000090E008958FEF9FEF0895FC01918D228D6D
:10031000892F90E0805C9F4F821B91098F739927F2
:10032000089589EA92E00E94850121E0892B09F471
:1003300020E0822F089580E090E0892B29F00E9430
:10034000910181110C9400000895FC01A48DA80F67
:10035000B92FB11DA35ABF4F2C91848D90E0019607
:100360008F739927848FA689B7892C93A089B18927
:100370008C91837080648C93938D848D981306C0C8
:100380000288F389E02D80818F7D80830895EF922C
:10039000FF920F931F93CF93DF93EC0181E0888F3F
:1003A0009B8D8C8D98131AC0E889F989808185FF0F
:1003B00015C09FB7F894EE89FF896083E889F989B1
:1003C00080818370806480839FBF81E090E0DF91B3
:1003D000CF911F910F91FF90EF900895F62E0B8D06
:1003E00010E00F5F1F4F0F731127E02E8C8D8E11C1
:1003F0000CC00FB607FCFACFE889F989808185FF28
:10040000F5CFCE010E94A501F1CFEB8DEC0FFD2FB2
:10041000F11DE35AFF4FF0829FB7F8940B8FEA89E2
:10042000FB8980818062CFCFCF93DF93EC01888DF1
:100430008823B9F0AA89BB89E889F9898C9185FD5F
:1004400003C0808186FD0DC00FB607FCF7CF8C91ED
:1004500085FFF2CF808185FFEDCFCE010E94A501FF
:10046000E9CFDF91CF910895089520912702260FBB
:100470003327331F21323105ECF420917F02FC0138
:1004800090E080E0243069F082E00895A091270296
:100490002191AC01495F5D4FA40FB52FB11D2C9385
:1004A0000196861798F380912702680F60932702C0
:1004B00080E0089581E0089510927F0281E08093AA
:1004C0007E021092590261E082E10E94840061E0A4
:1004D00083E10E948400E9EBF0E080818E7F8083DD
:1004E00080818D7F808388E48093B80085E4809349
:1004F000BC00089510925802109257021092860282
:100500001092A8020E945C0282E890E0909356024A
:100510008093550283E890E09093540280935302B5
:100520000895CF93DF9391E0909306028823B9F06A
:10053000C091B800D091BA008091BC008A7B8093B2
:10054000BC0060E082E10E94840060E083E10E94E0
:1005500084000E945C02D093BA00C093B800DF917F
:10056000CF910895CF92DF92EF92FF920F931F9356
:10057000CF93DF93D091A80281E0D13208F09CC0E4
:10058000C091A7020E94D0006B017C0180917F0284
:1005900081116CC082E080937F0281E080937E02B3
:1005A0008FEF80937D0210927C02D0937B02A7E8AC
:1005B000B2E0EBE5F2E080E0D8138DC010925A0271
:1005C00080915A02CC0FC82BC0935A0280915902D5
:1005D000813009F084C0109259020E94D0006B0152
:1005E0007C0180915A028093BB008091810290919E
:1005F0008202A0918302B0918402892B8A2B8B2BDB
:10060000A1F00E94D00000918102109182022091FD
:100610008302309184026C197D098E099F090617A7
:1006200017072807390708F442C08091BC0083FDF2
:10063000D8CF85EC8093BC000E94D0006B017C0178
:1006400080917F02823009F44CC080917D028F3FFF
:1006500009F469C080917D02803209F466C08091FE
:100660007D02803309F463C084E026C0809181025A
:1006700090918202A0918302B0918402892B8A2BEF
:100680008B2B09F483CF0E94D0000091810210913E
:10069000820220918302309184026C197D098E09B7
:1006A0009F09061717072807390708F06FCF8091B1
:1006B00080020E94910285E0109286021092A802A8
:1006C00010928502DF91CF911F910F91FF90EF90D3
:1006D000DF90CF9008959D9191938F5F6DCF85EEC0
:1006E000A9CF8091810290918202A0918302B09162
:1006F0008402892B8A2B8B2B09F4A2CF0E94D00075
:100700000091810210918202209183023091840233
:100710006C197D098E099F090617170728073907E5
:1007200008F08ECFC4CF80E0C7CF82E0C5CF83E092
:10073000C3CF1F93CF93DF93162FC2E5D3E0AE85CF
:10074000BF859B8521E0209385029093A70210929C
:1007500086021092A802ED91FC9111970190F08110
:10076000E02D682FCD0109958E859F85DC01ED91E7
:10077000FC910190F081E02D612F0995DF91CF91DF
:100780001F910C94B202EF92FF920F931F93CF939D
:10079000DF938C017B01DC011A968C911A9791E012
:1007A000909385028093A702109286021092A8026D
:1007B0001E968D919C91DC01ED91FC910190F08150
:1007C000E02DDB016C910995CBE8D1E0CE010197DA
:1007D000F1F7F80186859785DC01ED91FC91019098
:1007E000F081E02DD70111966C9109952197F1F7D1
:1007F000DF91CF911F910F91FF90EF900C94B20277
:10080000CF93DF9300D01F92CDB7DEB71B8290E865
:1008100099838A83BE016F5F7F4F82E593E00E94D8
:10082000C3030F900F900F90DF91CF910895CF9356
:10083000DF9300D01F92CDB7DEB71B8220E429835F
:100840006A83BE016F5F7F4F0E94C30381E090E027
:100850000F900F900F90DF91CF9108950895E09140
:10086000580280915702E81730F4F0E0EA51FE4F49
:10087000808190E008958FEF9FEF08959091580246
:10088000809157022FEF3FEF981748F4E92FF0E0DF
:10089000EA51FE4F208130E09F5F90935802C901DA
:1008A00008958091570290915802891B990B0895E1
:1008B000CF92DF92EF92FF920F931F93CF93DF932C
:1008C0007C01CB018A0120918502222389F0EB0172
:1008D0006B01C40ED51ECC15DD0569F06991D701F9
:1008E000ED91FC910190F081E02DC7010995F3CFC6
:1008F000642F0E943502C801DF91CF911F910F91A3
:10090000FF90EF90DF90CF900895CF93DF931F92E9
:10091000CDB7DEB76983209185022223F9F02091BB
:10092000A802203258F021E030E0FC01338322831A
:1009300090E080E00F90DF91CF9108958091860242
:10094000E82FF0E0E957FD4F998190838F5F809306
:1009500086028093A80281E090E0ECCF61E0CE01B6
:1009600001960E943502F7CFFC01248131E03093DB
:1009700085022093A702109286021092A802838516
:10098000682B86E493E00E9485040C94B20290E008
:1009900080E008950F931F93CF938C01C62F0E9480
:1009A000B4046C2F6460C8010E94B4046C2F6B7F88
:1009B000C8010E94B40483EC90E00197F1F7CF9155
:1009C0001F910F9108950F931F93CF93DF938C0185
:1009D000D62FC42F607F642B0E94CA0480E1D89F69
:1009E000B00111246C2BC801DF91CF911F910F91A1
:1009F0000C94CA0441E00E94E30481E090E0089571
:100A0000FB0101900020E9F73197AF01461B570B1E
:100A1000DC01ED91FC910280F381E02D09948F922D
:100A20009F92AF92BF92EF92FF920F931F93CF933B
:100A3000DF93CDB7DEB7A1970FB6F894DEBF0FBE38
:100A4000CDBF7C01FA01CB0119A2223008F42AE0C3
:100A50008E010F5D1F4F822E912CB12CA12CBF0156
:100A6000A50194010E94770AF901CA016A300CF5C8
:100A7000605DD8016E938D01232B242B252B79F7F4
:100A800090E080E0109721F0BD01C7010E940005B1
:100A9000A1960FB6F894DEBF0FBECDBFDF91CF9108
:100AA0001F910F91FF90EF90BF90AF909F908F900C
:100AB0000895695CDECFCF93DF93BC0189EA92E0B1
:100AC0000E940005EC0164E471E089EA92E00E9472
:100AD00000058C0F9D1FDF91CF91089585ED8093C8
:100AE000BC008091810290918202A0918302B0911A
:100AF00084020796A11DB11D23E0B695A795979591
:100B000087952A95D1F72091BC0024FD03C010924F
:100B10007F02089540918102509182026091830288
:100B200070918402452B462B472B69F30097A10552
:100B3000B10541F02AE22A95F1F700C00197A10919
:100B4000B109E1CF809180020C9491021F920F9223
:100B50000FB60F9211242F933F938F939F93AF93D0
:100B6000BF9380914B0290914C02A0914D02B091A5
:100B70004E0230914A0223E0230F2D3758F501969B
:100B8000A11DB11D20934A0280934B0290934C0209
:100B9000A0934D02B0934E0280914F02909150026B
:100BA000A0915102B09152020196A11DB11D8093F6
:100BB0004F0290935002A0935102B0935202BF9102
:100BC000AF919F918F913F912F910F900FBE0F90FA
:100BD0001F90189526E8230F0296A11DB11DD2CFB4
:100BE0001F920F920FB60F9211242F933F934F93A2
:100BF0005F936F937F938F939F93AF93BF93EF9385
:100C0000FF9389EA92E00E94A501FF91EF91BF91C5
:100C1000AF919F918F917F916F915F914F913F9194
:100C20002F910F900FBE0F901F9018951F920F924B
:100C30000FB60F9211242F938F939F93EF93FF93EF
:100C4000E091B902F091BA028081E091BF02F09187
:100C5000C00282FD1BC090818091C2028F5F8F73A2
:100C60002091C302821741F0E091C202F0E0E75503
:100C7000FD4F958F8093C202FF91EF919F918F91CD
:100C80002F910F900FBE0F901F9018958081F4CF79
:100C90001F920F920FB60F9211242F933F934F93F1
:100CA0005F936F937F938F939F93AF93BF93EF93D4
:100CB000FF938091B900887F803609F44AC0F0F52F
:100CC000883209F4A7C018F5803109F49BC0B8F444
:100CD000882309F4F9C0883009F494C0FF91EF919A
:100CE000BF91AF919F918F917F916F915F914F9144
:100CF0003F912F910F900FBE0F901F901895883144
:100D000009F488C0803251F780937D0214C080348A
:100D100009F49DC040F48033B9F38833F9F6809329
:100D20007D0285ECB0C0803509F485C0883509F4B2
:100D300096C0883499F60E946E05D0CF883909F4A0
:100D40008CC038F5883729F050F4883611F0803798
:100D500029F683E080937F021092490257C08838B9
:100D600009F47BC0803919F0803809F0B7CF809141
:100D70004902803208F071C0E091490281E08E0F93
:100D8000809349028091BB00F0E0E75DFD4F8083D6
:100D90003DC0803B39F0E0F4803A09F479C0883AEC
:100DA00009F09CCF84E080937F0210922802109279
:100DB0002702E0915502F091560209958091270291
:100DC00081110FC081E0809327021092070209C0B1
:100DD000803C09F4A6CF883C09F4A3CF883B09F0F6
:100DE0007DCFE091280281E08E0F80932802F0E011
:100DF000E95FFD4F80818093BB0090912802809134
:100E0000270229C080915A028093BB0085EC809311
:100E1000BC0064CF90917C0280917B02981758F5BA
:100E2000E0917C0281E08E0F80937C02F0E0E55A35
:100E3000FD4F8081E9CFE0917C0281E08E0F8093AD
:100E40007C028091BB00F0E0E55AFD4F80839091D9
:100E50007C0280917B029817C8F285E8D8CFE09198
:100E60007C0281E08E0F80937C028091BB00F0E0D9
:100E7000E55AFD4F808380917E0281115CCF81E035
:100E80008093590284EA8093BC0010927F0226CF9F
:100E900085EC8093BC0010927F02809149028032E1
:100EA00030F4E0914902F0E0E75DFD4F108260917F
:100EB000490270E0E0915302F091540289E292E01D
:100EC0000995109249020ACF10927D0234CFE9EAC7
:100ED000F2E01382128248EE53E060E070E0448357
:100EE0005583668377838CE091E09183808385ECE2
:100EF00090E09587848784EC90E09787868780ECE4
:100F000090E0918B808B81EC90E0938B828B82ECD4
:100F100090E0958B848B86EC90E0978B868B118E7E
:100F2000128E138E148EA6E4B3E013961C921E92BA
:100F3000129714964D935D936D937C9317978EE162
:100F400091E011969C938E93E6E6F3E01382128271
:100F50008CE391E0918380838FE3848384E18187B4
:100F600084E082871386E2E5F3E01382128280E355
:100F700091E091838083108A118A128A138A8EE30A
:100F8000828780E6838780E1848782E08587B787D0
:100F9000A6870895CF93DF93CDB7DEB728970FB616
:100FA000F894DEBF0FBECDBF789484B5826084BD57
:100FB00084B5816084BD85B5826085BD85B581605D
:100FC00085BD80916E00816080936E0010928100DB
:100FD0008091810082608093810080918100816096
:100FE0008093810080918000816080938000809157
:100FF000B10084608093B1008091B00081608093E3
:10100000B00080917A00846080937A0080917A00A9
:10101000826080937A0080917A00816080937A0068
:1010200080917A00806880937A001092C1000E94BB
:101030007A02E091B902F091BA0212E01083E091D5
:10104000B502F091B6021082E091B702F091B802B9
:101050008FEC80831092C102E091BD02F091BE023C
:1010600006E00083E091BB02F091BC0280818061C8
:101070008083E091BB02F091BC0280818860808314
:10108000E091BB02F091BC02808180688083E09196
:10109000BB02F091BC0280818F7D808387E491E068
:1010A0000E945B050E947A0280915D03803609F000
:1010B000A2C184E08093620383E080936303109372
:1010C0006403109365031092560380915F0382308E
:1010D00018F098E09093560380935A0310925B03A4
:1010E00062E370E080E090E00E94F500809156039A
:1010F00080620E94000465E070E080E090E00E9461
:10110000F5008091560380620E94000465E070E063
:1011100080E090E00E94F5008091560380620E947A
:10112000000484E0809357038CE00E94000481E077
:101130000E9400048BE39FE10197F1F782E0809326
:10114000580386E00E94000480915D03803609F018
:1011500074C160E080E00E9499036FEF88E00E9414
:10116000990360E281E00E9499038091620390916B
:101170005D03903309F084C160EC0E94990360EC38
:10118000809163030E94990360EC809164030E9444
:10119000990364E571E082E593E00E9400050E94F6
:1011A0007A0210926B0380917003823018F098E0FD
:1011B00090936B0380936E0362E370E080E090E0B5
:1011C0000E94F5006091710386E693E00E94B404EA
:1011D00068EE73E080E090E00E94F50060E386E650
:1011E00093E00E94CA040BE416E4C8010197F1F7EA
:1011F00060E386E693E00E94CA04C8010197F1F714
:1012000060E386E693E00E94CA0483E592E00197DA
:10121000F1F760E286E693E00E94CA0460916B03F6
:10122000606240E086E693E00E94E30484E08093FD
:101230006C0340E06CE086E693E00E94E30440E04B
:1012400061E086E693E00E94E3040BE31FE1C8013E
:101250000197F1F782E080936D0340E066E086E657
:1012600093E00E94E30440E062E086E693E00E949F
:10127000E304C8010197F1F764E571E086E693E0C5
:101280000E94000564EF71E080E090E00E94F500AC
:1012900081E00E940004C8010197F1F740E061E09D
:1012A00086E693E00E94E304C8010197F1F761E646
:1012B00071E082E593E00E9400051B8280E889834B
:1012C00080EC8A83BE016F5F7F4F82E593E00E94CE
:1012D000C30360E771E082E593E00E940005DD242E
:1012E000D39420E0E22E20E0F22E83E791E00E94EA
:1012F0005B05812C912C5401839410E000E0D09286
:1013000085028092A702109286021092A8020E9483
:10131000B2028111CAC06FE771E089EA92E00E94CF
:1013200000058FE0881530F06EE971E089EA92E0FF
:101330000E94000520E1B501A40189EA92E00E9423
:101340000F0580EA91E00E945B050F5F1F4F8FEF52
:10135000881A980AA80AB80A9FE789169104A10476
:10136000B10469F680EC91E00115110511F086EDEC
:1013700091E00E945B0588E0E0E0F1E0DE0111967B
:1013800001900D928A95E1F7E0916E03E33008F049
:10139000ACC0E150F0E0EE0FFF1F81E090E08C0F59
:1013A0009D1FE80FF91F6081606840E086E693E0CA
:1013B0000E94E3046CED71E086E693E00E94000574
:1013C000A801110F660B770B2AE086E693E00E94D6
:1013D0000F0564EF71E080E090E00E94F500E114F9
:1013E000F10409F482CF0E949101882309F47DCF92
:1013F0000E9400007ACF803359F40093620387E0A3
:101400008093630388E080936403809365035BCEDD
:101410008B3639F40093620385E08093630384E0A4
:10142000F2CF8D3209F04FCE81E0809362031093AA
:10143000630393E090936403E8CF803359F460E052
:1014400081E00E9499036FEF82E00E94990365E1B9
:1014500084E089CE8B3609F088CE60E08FE20E946E
:10146000990360E280E00E94990360E081E00E94BD
:10147000990361E082E00E94990364E083E073CE07
:101480006FEF0E9499036FEF809163030E949903AD
:101490006FEF809164030E94990380915D038B3606
:1014A00009F077CE6FEF87E072CE843009F04FCF2E
:1014B00064EA71E089EA92E00E9400059FE09815D5
:1014C00030F06EE971E089EA92E00E94000520E1C7
:1014D000B501A40189EA92E00E940F0564E471E07D
:1014E00089EA92E00E94000532CFE3E053CFA1E207
:1014F0001A2EAA1BBB1BFD010DC0AA1FBB1FEE1F8E
:10150000FF1FA217B307E407F50720F0A21BB30BD8
:10151000E40BF50B661F771F881F991F1A9469F754
:1015200060957095809590959B01AC01BD01CF01B0
:101530000895EE0FFF1F0590F491E02D0994F894A3
:02154000FFCFDB
:10154200000040001400540000000000C701270101
:101552005401140285016301770100000000850433
:101562005804C7042E0451043E042F040000000056
:1015720017042701C704340200000000FA042701FF
:10158200C70434020D0A000A493243205363616ED4
:101592006E65720048656C6C6F20576F726C6421C7
:1015A2000049206C6F76652061726475696E6F0008
:1015B2003A29005363616E6E696E672E2E2E0049C2
:1015C20032432064657669636520666F756E6420B8
:1015D2006174206164647265737320307800300036
:1015E20020202100556E6B6E6F776E206572726FD0
:1015F20072206174206164647265737320307800B4
:101602004E6F2049324320646576696365732066B4
:101612006F756E640A00646F6E650A0044657669D0
:061622006365733A20002D
:00000001FF
